{
  "contractName": "ZombieFeeding",
  "abi": [
    {
      "constant": true,
      "inputs": [
        {
          "name": "",
          "type": "uint256"
        }
      ],
      "name": "zombies",
      "outputs": [
        {
          "name": "name",
          "type": "string"
        },
        {
          "name": "dna",
          "type": "uint256"
        },
        {
          "name": "level",
          "type": "uint32"
        },
        {
          "name": "readyTime",
          "type": "uint32"
        },
        {
          "name": "winCount",
          "type": "uint16"
        },
        {
          "name": "lossCount",
          "type": "uint16"
        }
      ],
      "payable": false,
      "stateMutability": "view",
      "type": "function"
    },
    {
      "constant": true,
      "inputs": [
        {
          "name": "",
          "type": "bytes32"
        }
      ],
      "name": "existingZombieNames",
      "outputs": [
        {
          "name": "",
          "type": "bool"
        }
      ],
      "payable": false,
      "stateMutability": "view",
      "type": "function"
    },
    {
      "constant": true,
      "inputs": [
        {
          "name": "",
          "type": "uint256"
        }
      ],
      "name": "zombieToOwner",
      "outputs": [
        {
          "name": "",
          "type": "address"
        }
      ],
      "payable": false,
      "stateMutability": "view",
      "type": "function"
    },
    {
      "constant": false,
      "inputs": [],
      "name": "renounceOwnership",
      "outputs": [],
      "payable": false,
      "stateMutability": "nonpayable",
      "type": "function"
    },
    {
      "constant": false,
      "inputs": [
        {
          "name": "_name",
          "type": "string"
        }
      ],
      "name": "createRandomZombie",
      "outputs": [],
      "payable": false,
      "stateMutability": "nonpayable",
      "type": "function"
    },
    {
      "constant": true,
      "inputs": [],
      "name": "owner",
      "outputs": [
        {
          "name": "",
          "type": "address"
        }
      ],
      "payable": false,
      "stateMutability": "view",
      "type": "function"
    },
    {
      "constant": true,
      "inputs": [],
      "name": "isOwner",
      "outputs": [
        {
          "name": "",
          "type": "bool"
        }
      ],
      "payable": false,
      "stateMutability": "view",
      "type": "function"
    },
    {
      "constant": false,
      "inputs": [
        {
          "name": "newOwner",
          "type": "address"
        }
      ],
      "name": "transferOwnership",
      "outputs": [],
      "payable": false,
      "stateMutability": "nonpayable",
      "type": "function"
    },
    {
      "anonymous": false,
      "inputs": [
        {
          "indexed": false,
          "name": "zombieId",
          "type": "uint256"
        },
        {
          "indexed": false,
          "name": "name",
          "type": "string"
        },
        {
          "indexed": false,
          "name": "dna",
          "type": "uint256"
        }
      ],
      "name": "NewZombie",
      "type": "event"
    },
    {
      "anonymous": false,
      "inputs": [
        {
          "indexed": true,
          "name": "previousOwner",
          "type": "address"
        },
        {
          "indexed": true,
          "name": "newOwner",
          "type": "address"
        }
      ],
      "name": "OwnershipTransferred",
      "type": "event"
    },
    {
      "constant": false,
      "inputs": [
        {
          "name": "_address",
          "type": "address"
        }
      ],
      "name": "setKittyContractAddress",
      "outputs": [],
      "payable": false,
      "stateMutability": "nonpayable",
      "type": "function"
    },
    {
      "constant": false,
      "inputs": [
        {
          "name": "_zombieId",
          "type": "uint256"
        },
        {
          "name": "_kittyId",
          "type": "uint256"
        }
      ],
      "name": "feedOnKitty",
      "outputs": [],
      "payable": false,
      "stateMutability": "nonpayable",
      "type": "function"
    }
  ],
  "bytecode": "0x60806040526010600155600154600a0a600255603c600355336000806101000a81548173ffffffffffffffffffffffffffffffffffffffff021916908373ffffffffffffffffffffffffffffffffffffffff1602179055506000809054906101000a900473ffffffffffffffffffffffffffffffffffffffff1673ffffffffffffffffffffffffffffffffffffffff16600073ffffffffffffffffffffffffffffffffffffffff167f8be0079c531659141344cd1fd0a4f28419497f9722a3daafe3b4186f6b6457e060405160405180910390a361120e806100e26000396000f3006080604052600436106100a4576000357c0100000000000000000000000000000000000000000000000000000000900463ffffffff16806317a7f4cc146100a95780632052465e146100e057806347b51721146101d1578063528b7b8f1461021a5780635f4623f114610287578063715018a6146102ca5780637bff0a01146102e15780638da5cb5b1461034a5780638f32d59b146103a1578063f2fde38b146103d0575b600080fd5b3480156100b557600080fd5b506100de6004803603810190808035906020019092919080359060200190929190505050610413565b005b3480156100ec57600080fd5b5061010b6004803603810190808035906020019092919050505061065d565b60405180806020018781526020018663ffffffff1663ffffffff1681526020018563ffffffff1663ffffffff1681526020018461ffff1661ffff1681526020018361ffff1661ffff168152602001828103825288818151815260200191508051906020019080838360005b83811015610191578082015181840152602081019050610176565b50505050905090810190601f1680156101be5780820380516001836020036101000a031916815260200191505b5097505050505050505060405180910390f35b3480156101dd57600080fd5b50610200600480360381019080803560001916906020019092919050505061077c565b604051808215151515815260200191505060405180910390f35b34801561022657600080fd5b506102456004803603810190808035906020019092919050505061079c565b604051808273ffffffffffffffffffffffffffffffffffffffff1673ffffffffffffffffffffffffffffffffffffffff16815260200191505060405180910390f35b34801561029357600080fd5b506102c8600480360381019080803573ffffffffffffffffffffffffffffffffffffffff1690602001909291905050506107cf565b005b3480156102d657600080fd5b506102df610826565b005b3480156102ed57600080fd5b50610348600480360381019080803590602001908201803590602001908080601f01602080910402602001604051908101604052809392919081815260200183838082843782019150505050505091929192905050506108f8565b005b34801561035657600080fd5b5061035f610a84565b604051808273ffffffffffffffffffffffffffffffffffffffff1673ffffffffffffffffffffffffffffffffffffffff16815260200191505060405180910390f35b3480156103ad57600080fd5b506103b6610aad565b604051808215151515815260200191505060405180910390f35b3480156103dc57600080fd5b50610411600480360381019080803573ffffffffffffffffffffffffffffffffffffffff169060200190929190505050610b04565b005b600080836005600082815260200190815260200160002060009054906101000a900473ffffffffffffffffffffffffffffffffffffffff1673ffffffffffffffffffffffffffffffffffffffff163373ffffffffffffffffffffffffffffffffffffffff1614151561048457600080fd5b600860009054906101000a900473ffffffffffffffffffffffffffffffffffffffff1673ffffffffffffffffffffffffffffffffffffffff1663e98b7f4d856040518263ffffffff167c01000000000000000000000000000000000000000000000000000000000281526004018082815260200191505061014060405180830381600087803b15801561051657600080fd5b505af115801561052a573d6000803e3d6000fd5b505050506040513d61014081101561054157600080fd5b8101908080519060200190929190805190602001909291908051906020019092919080519060200190929190805190602001909291908051906020019092919080519060200190929190805190602001909291908051906020019092919080519060200190929190505050909192939495969798509091929394959697509091929394959650909192939495509091929394509091929350909192509091509050809350506002836004878154811015156105f857fe5b9060005260206000209060030201600101540181151561061457fe5b0491506106566040805190810160405280600b81526020017f4b697474795a6f6d62696500000000000000000000000000000000000000000081525083610b23565b5050505050565b60048181548110151561066c57fe5b9060005260206000209060030201600091509050806000018054600181600116156101000203166002900480601f0160208091040260200160405190810160405280929190818152602001828054600181600116156101000203166002900480156107185780601f106106ed57610100808354040283529160200191610718565b820191906000526020600020905b8154815290600101906020018083116106fb57829003601f168201915b5050505050908060010154908060020160009054906101000a900463ffffffff16908060020160049054906101000a900463ffffffff16908060020160089054906101000a900461ffff169080600201600a9054906101000a900461ffff16905086565b60076020528060005260406000206000915054906101000a900460ff1681565b60056020528060005260406000206000915054906101000a900473ffffffffffffffffffffffffffffffffffffffff1681565b6107d7610aad565b15156107e257600080fd5b80600860006101000a81548173ffffffffffffffffffffffffffffffffffffffff021916908373ffffffffffffffffffffffffffffffffffffffff16021790555050565b61082e610aad565b151561083957600080fd5b600073ffffffffffffffffffffffffffffffffffffffff166000809054906101000a900473ffffffffffffffffffffffffffffffffffffffff1673ffffffffffffffffffffffffffffffffffffffff167f8be0079c531659141344cd1fd0a4f28419497f9722a3daafe3b4186f6b6457e060405160405180910390a360008060006101000a81548173ffffffffffffffffffffffffffffffffffffffff021916908373ffffffffffffffffffffffffffffffffffffffff160217905550565b600080826040516020018082805190602001908083835b602083101515610934578051825260208201915060208101905060208303925061090f565b6001836020036101000a0380198251168184511680821785525050505050509050019150506040516020818303038152906040526040518082805190602001908083835b60208310151561099d5780518252602082019150602081019050602083039250610978565b6001836020036101000a0380198251168184511680821785525050505050509050019150506040518091039020915060076000836000191660001916815260200190815260200160002060009054906101000a900460ff16151515610a6a576040517f08c379a000000000000000000000000000000000000000000000000000000000815260040180806020018281038252601b8152602001807f54686973206e616d6520697320616c72656164792074616b656e2e000000000081525060200191505060405180910390fd5b610a7383610f55565b9050610a7f8382610b23565b505050565b60008060009054906101000a900473ffffffffffffffffffffffffffffffffffffffff16905090565b60008060009054906101000a900473ffffffffffffffffffffffffffffffffffffffff1673ffffffffffffffffffffffffffffffffffffffff163373ffffffffffffffffffffffffffffffffffffffff1614905090565b610b0c610aad565b1515610b1757600080fd5b610b2081611043565b50565b600080836040516020018082805190602001908083835b602083101515610b5f5780518252602082019150602081019050602083039250610b3a565b6001836020036101000a0380198251168184511680821785525050505050509050019150506040516020818303038152906040526040518082805190602001908083835b602083101515610bc85780518252602082019150602081019050602083039250610ba3565b6001836020036101000a0380198251168184511680821785525050505050509050019150506040518091039020915060076000836000191660001916815260200190815260200160002060009054906101000a900460ff16151515610c95576040517f08c379a000000000000000000000000000000000000000000000000000000000815260040180806020018281038252601b8152602001807f54686973206e616d6520697320616c72656164792074616b656e2e000000000081525060200191505060405180910390fd5b6001600460c060405190810160405280878152602001868152602001600163ffffffff16815260200162015180420163ffffffff168152602001600061ffff168152602001600061ffff16815250908060018154018082558091505090600182039060005260206000209060030201600090919290919091506000820151816000019080519060200190610d2a92919061113d565b506020820151816001015560408201518160020160006101000a81548163ffffffff021916908363ffffffff16021790555060608201518160020160046101000a81548163ffffffff021916908363ffffffff16021790555060808201518160020160086101000a81548161ffff021916908361ffff16021790555060a082015181600201600a6101000a81548161ffff021916908361ffff1602179055505050039050336005600083815260200190815260200160002060006101000a81548173ffffffffffffffffffffffffffffffffffffffff021916908373ffffffffffffffffffffffffffffffffffffffff160217905550600660003373ffffffffffffffffffffffffffffffffffffffff1673ffffffffffffffffffffffffffffffffffffffff16815260200190815260200160002060008154809291906001019190505550600160076000846000191660001916815260200190815260200160002060006101000a81548160ff0219169083151502179055507f88f026aacbbecc90c18411df4b1185fd8d9be2470f1962f192bf84a27d0704b78185856040518084815260200180602001838152602001828103825284818151815260200191508051906020019080838360005b83811015610f13578082015181840152602081019050610ef8565b50505050905090810190601f168015610f405780820380516001836020036101000a031916815260200191505b5094505050505060405180910390a150505050565b600080826040516020018082805190602001908083835b602083101515610f915780518252602082019150602081019050602083039250610f6c565b6001836020036101000a0380198251168184511680821785525050505050509050019150506040516020818303038152906040526040518082805190602001908083835b602083101515610ffa5780518252602082019150602081019050602083039250610fd5565b6001836020036101000a03801982511681845116808217855250505050505090500191505060405180910390206001900490506002548181151561103a57fe5b06915050919050565b600073ffffffffffffffffffffffffffffffffffffffff168173ffffffffffffffffffffffffffffffffffffffff161415151561107f57600080fd5b8073ffffffffffffffffffffffffffffffffffffffff166000809054906101000a900473ffffffffffffffffffffffffffffffffffffffff1673ffffffffffffffffffffffffffffffffffffffff167f8be0079c531659141344cd1fd0a4f28419497f9722a3daafe3b4186f6b6457e060405160405180910390a3806000806101000a81548173ffffffffffffffffffffffffffffffffffffffff021916908373ffffffffffffffffffffffffffffffffffffffff16021790555050565b828054600181600116156101000203166002900490600052602060002090601f016020900481019282601f1061117e57805160ff19168380011785556111ac565b828001600101855582156111ac579182015b828111156111ab578251825591602001919060010190611190565b5b5090506111b991906111bd565b5090565b6111df91905b808211156111db5760008160009055506001016111c3565b5090565b905600a165627a7a72305820f214f6e66c6dfe29b30be94af48f07b81b9bd6de5af0299853bcb837991344b40029",
  "source": "pragma solidity ^0.4.25;\n\nimport \"./zombiefactory.sol\";\n\ncontract KittyInterface {\n  function getKitty(uint256 _id) external view returns (\n    bool isGestating,\n    bool isReady,\n    uint256 cooldownIndex,\n    uint256 nextActionAt,\n    uint256 siringWithId,\n    uint256 birthTime,\n    uint256 matronId,\n    uint256 sireId,\n    uint256 generation,\n    uint256 genes\n  );\n}\n\ncontract ZombieFeeding is ZombieFactory {\n\n  KittyInterface kittyContract;\n\n  modifier onlyOwnerOf(uint _zombieId) {\n    require(msg.sender == zombieToOwner[_zombieId]);\n    _;\n  }\n\n  function setKittyContractAddress(address _address) external onlyOwner {\n    kittyContract = KittyInterface(_address);\n  }\n\n  function _triggerCooldown(Zombie storage _zombie) internal {\n    _zombie.readyTime = uint32(now + cooldownTime);\n  }\n\n  function _isReady(Zombie storage _zombie) internal view returns (bool) {\n      return (_zombie.readyTime <= now);\n  }\n\n  function feedAndMultiply(uint _zombieId, uint _targetDna, string _species) internal onlyOwnerOf(_zombieId) {\n    Zombie storage myZombie = zombies[_zombieId];\n    require(_isReady(myZombie));\n    _targetDna = _targetDna % dnaModulus;\n    uint newDna = (myZombie.dna + _targetDna) / 2;\n    if (keccak256(abi.encodePacked(_species)) == keccak256(abi.encodePacked(\"kitty\"))) {\n      newDna = newDna - newDna % 100 + 99;\n    }\n    _createZombie(\"NoName\", newDna);\n    _triggerCooldown(myZombie);\n  }\n\nfunction feedOnKitty(uint _zombieId, uint _kittyId) public onlyOwnerOf(_zombieId) {\n    uint kittyDna;\n    (,,,,,,,,,kittyDna) = kittyContract.getKitty(_kittyId);\n    uint newDna = (zombies[_zombieId].dna + kittyDna) / 2;\n    _createZombie(\"KittyZombie\", newDna);\n}\n}\n",
  "sourcePath": "C:\\Users\\Manoj\\OneDrive\\Desktop\\Adv_Blockchain\\CryptoZombie\\contracts\\zombiefeeding.sol",
  "compiler": {
    "name": "solc",
    "version": "0.4.25+commit.59dbf8f1.Emscripten.clang"
  },
  "schemaVersion": "3.4.16",
  "updatedAt": "2024-10-20T23:33:04.888Z",
  "networkType": "ethereum",
  "devdoc": {
    "methods": {
      "isOwner()": {
        "return": "true if `msg.sender` is the owner of the contract."
      },
      "owner()": {
        "return": "the address of the owner."
      },
      "renounceOwnership()": {
        "details": "Allows the current owner to relinquish control of the contract."
      },
      "transferOwnership(address)": {
        "details": "Allows the current owner to transfer control of the contract to a newOwner.",
        "params": {
          "newOwner": "The address to transfer ownership to."
        }
      }
    }
  },
  "userdoc": {
    "methods": {
      "renounceOwnership()": {
        "notice": "Renouncing to ownership will leave the contract without an owner. It will not be possible to call the functions with the `onlyOwner` modifier anymore."
      }
    }
  }
}