{
  "contractName": "ZombieOwnership",
  "abi": [
    {
      "constant": false,
      "inputs": [
        {
          "name": "_zombieId",
          "type": "uint256"
        }
      ],
      "name": "levelUp",
      "outputs": [],
      "payable": true,
      "stateMutability": "payable",
      "type": "function"
    },
    {
      "constant": false,
      "inputs": [
        {
          "name": "_zombieId",
          "type": "uint256"
        },
        {
          "name": "_kittyId",
          "type": "uint256"
        }
      ],
      "name": "feedOnKitty",
      "outputs": [],
      "payable": false,
      "stateMutability": "nonpayable",
      "type": "function"
    },
    {
      "constant": true,
      "inputs": [
        {
          "name": "",
          "type": "uint256"
        }
      ],
      "name": "zombies",
      "outputs": [
        {
          "name": "name",
          "type": "string"
        },
        {
          "name": "dna",
          "type": "uint256"
        },
        {
          "name": "level",
          "type": "uint32"
        },
        {
          "name": "readyTime",
          "type": "uint32"
        },
        {
          "name": "winCount",
          "type": "uint16"
        },
        {
          "name": "lossCount",
          "type": "uint16"
        }
      ],
      "payable": false,
      "stateMutability": "view",
      "type": "function"
    },
    {
      "constant": true,
      "inputs": [
        {
          "name": "",
          "type": "bytes32"
        }
      ],
      "name": "existingNames",
      "outputs": [
        {
          "name": "",
          "type": "bool"
        }
      ],
      "payable": false,
      "stateMutability": "view",
      "type": "function"
    },
    {
      "constant": false,
      "inputs": [],
      "name": "withdraw",
      "outputs": [],
      "payable": false,
      "stateMutability": "nonpayable",
      "type": "function"
    },
    {
      "constant": true,
      "inputs": [
        {
          "name": "_owner",
          "type": "address"
        }
      ],
      "name": "getZombiesByOwner",
      "outputs": [
        {
          "name": "",
          "type": "uint256[]"
        }
      ],
      "payable": false,
      "stateMutability": "view",
      "type": "function"
    },
    {
      "constant": true,
      "inputs": [
        {
          "name": "",
          "type": "bytes32"
        }
      ],
      "name": "existingZombieNames",
      "outputs": [
        {
          "name": "",
          "type": "bool"
        }
      ],
      "payable": false,
      "stateMutability": "view",
      "type": "function"
    },
    {
      "constant": true,
      "inputs": [
        {
          "name": "",
          "type": "uint256"
        }
      ],
      "name": "zombieToOwner",
      "outputs": [
        {
          "name": "",
          "type": "address"
        }
      ],
      "payable": false,
      "stateMutability": "view",
      "type": "function"
    },
    {
      "constant": false,
      "inputs": [
        {
          "name": "_address",
          "type": "address"
        }
      ],
      "name": "setKittyContractAddress",
      "outputs": [],
      "payable": false,
      "stateMutability": "nonpayable",
      "type": "function"
    },
    {
      "constant": false,
      "inputs": [
        {
          "name": "_zombieId",
          "type": "uint256"
        },
        {
          "name": "_newDna",
          "type": "uint256"
        }
      ],
      "name": "changeDna",
      "outputs": [],
      "payable": false,
      "stateMutability": "nonpayable",
      "type": "function"
    },
    {
      "constant": false,
      "inputs": [],
      "name": "renounceOwnership",
      "outputs": [],
      "payable": false,
      "stateMutability": "nonpayable",
      "type": "function"
    },
    {
      "constant": false,
      "inputs": [
        {
          "name": "_name",
          "type": "string"
        }
      ],
      "name": "createRandomZombie",
      "outputs": [],
      "payable": false,
      "stateMutability": "nonpayable",
      "type": "function"
    },
    {
      "constant": true,
      "inputs": [],
      "name": "owner",
      "outputs": [
        {
          "name": "",
          "type": "address"
        }
      ],
      "payable": false,
      "stateMutability": "view",
      "type": "function"
    },
    {
      "constant": true,
      "inputs": [],
      "name": "isOwner",
      "outputs": [
        {
          "name": "",
          "type": "bool"
        }
      ],
      "payable": false,
      "stateMutability": "view",
      "type": "function"
    },
    {
      "constant": false,
      "inputs": [
        {
          "name": "_zombieId",
          "type": "uint256"
        },
        {
          "name": "_newName",
          "type": "string"
        }
      ],
      "name": "changeName",
      "outputs": [],
      "payable": false,
      "stateMutability": "nonpayable",
      "type": "function"
    },
    {
      "constant": false,
      "inputs": [
        {
          "name": "_fee",
          "type": "uint256"
        }
      ],
      "name": "setLevelUpFee",
      "outputs": [],
      "payable": false,
      "stateMutability": "nonpayable",
      "type": "function"
    },
    {
      "constant": false,
      "inputs": [
        {
          "name": "_zombieId",
          "type": "uint256"
        }
      ],
      "name": "levelDown",
      "outputs": [],
      "payable": false,
      "stateMutability": "nonpayable",
      "type": "function"
    },
    {
      "constant": false,
      "inputs": [
        {
          "name": "_zombieId",
          "type": "uint256"
        },
        {
          "name": "_targetId",
          "type": "uint256"
        }
      ],
      "name": "attack",
      "outputs": [],
      "payable": false,
      "stateMutability": "nonpayable",
      "type": "function"
    },
    {
      "constant": false,
      "inputs": [
        {
          "name": "newOwner",
          "type": "address"
        }
      ],
      "name": "transferOwnership",
      "outputs": [],
      "payable": false,
      "stateMutability": "nonpayable",
      "type": "function"
    },
    {
      "anonymous": false,
      "inputs": [
        {
          "indexed": true,
          "name": "_from",
          "type": "address"
        },
        {
          "indexed": true,
          "name": "_to",
          "type": "address"
        },
        {
          "indexed": true,
          "name": "_tokenId",
          "type": "uint256"
        }
      ],
      "name": "Transfer",
      "type": "event"
    },
    {
      "anonymous": false,
      "inputs": [
        {
          "indexed": true,
          "name": "_owner",
          "type": "address"
        },
        {
          "indexed": true,
          "name": "_approved",
          "type": "address"
        },
        {
          "indexed": true,
          "name": "_tokenId",
          "type": "uint256"
        }
      ],
      "name": "Approval",
      "type": "event"
    },
    {
      "anonymous": false,
      "inputs": [
        {
          "indexed": false,
          "name": "zombieId",
          "type": "uint256"
        },
        {
          "indexed": false,
          "name": "name",
          "type": "string"
        },
        {
          "indexed": false,
          "name": "dna",
          "type": "uint256"
        }
      ],
      "name": "NewZombie",
      "type": "event"
    },
    {
      "anonymous": false,
      "inputs": [
        {
          "indexed": true,
          "name": "previousOwner",
          "type": "address"
        },
        {
          "indexed": true,
          "name": "newOwner",
          "type": "address"
        }
      ],
      "name": "OwnershipTransferred",
      "type": "event"
    },
    {
      "constant": true,
      "inputs": [
        {
          "name": "_owner",
          "type": "address"
        }
      ],
      "name": "balanceOf",
      "outputs": [
        {
          "name": "",
          "type": "uint256"
        }
      ],
      "payable": false,
      "stateMutability": "view",
      "type": "function"
    },
    {
      "constant": true,
      "inputs": [
        {
          "name": "_tokenId",
          "type": "uint256"
        }
      ],
      "name": "ownerOf",
      "outputs": [
        {
          "name": "",
          "type": "address"
        }
      ],
      "payable": false,
      "stateMutability": "view",
      "type": "function"
    },
    {
      "constant": false,
      "inputs": [
        {
          "name": "_from",
          "type": "address"
        },
        {
          "name": "_to",
          "type": "address"
        },
        {
          "name": "_tokenId",
          "type": "uint256"
        }
      ],
      "name": "transferFrom",
      "outputs": [],
      "payable": true,
      "stateMutability": "payable",
      "type": "function"
    },
    {
      "constant": false,
      "inputs": [
        {
          "name": "_approved",
          "type": "address"
        },
        {
          "name": "_tokenId",
          "type": "uint256"
        }
      ],
      "name": "approve",
      "outputs": [],
      "payable": true,
      "stateMutability": "payable",
      "type": "function"
    }
  ],
  "bytecode": "0x60806040526010600155600154600a0a600255603c60035566038d7ea4c680006009556000600b556046600c55336000806101000a81548173ffffffffffffffffffffffffffffffffffffffff021916908373ffffffffffffffffffffffffffffffffffffffff1602179055506000809054906101000a900473ffffffffffffffffffffffffffffffffffffffff1673ffffffffffffffffffffffffffffffffffffffff16600073ffffffffffffffffffffffffffffffffffffffff167f8be0079c531659141344cd1fd0a4f28419497f9722a3daafe3b4186f6b6457e060405160405180910390a36127b1806100f76000396000f300608060405260043610610133576000357c0100000000000000000000000000000000000000000000000000000000900463ffffffff168063095ea7b3146101385780630ce90ec21461017857806317a7f4cc146101985780632052465e146101cf57806323b872dd146102c057806327cdbf4a146103205780633ccfd60b146103695780634412e1041461038057806347b5172114610418578063528b7b8f146104615780635f4623f1146104ce5780635faf2880146105115780636352211e1461054857806370a08231146105b5578063715018a61461060c5780637bff0a01146106235780638da5cb5b1461068c5780638f32d59b146106e3578063c39cbef114610712578063ccf670f814610757578063e14d2cee14610784578063e1fa7638146107b1578063f2fde38b146107e8575b600080fd5b610176600480360381019080803573ffffffffffffffffffffffffffffffffffffffff1690602001909291908035906020019092919050505061082b565b005b6101966004803603810190808035906020019092919050505061094b565b005b3480156101a457600080fd5b506101cd60048036038101908080359060200190929190803590602001909291905050506109e6565b005b3480156101db57600080fd5b506101fa60048036038101908080359060200190929190505050610c30565b60405180806020018781526020018663ffffffff1663ffffffff1681526020018563ffffffff1663ffffffff1681526020018461ffff1661ffff1681526020018361ffff1661ffff168152602001828103825288818151815260200191508051906020019080838360005b83811015610280578082015181840152602081019050610265565b50505050905090810190601f1680156102ad5780820380516001836020036101000a031916815260200191505b5097505050505050505060405180910390f35b61031e600480360381019080803573ffffffffffffffffffffffffffffffffffffffff169060200190929190803573ffffffffffffffffffffffffffffffffffffffff16906020019092919080359060200190929190505050610d4f565b005b34801561032c57600080fd5b5061034f6004803603810190808035600019169060200190929190505050610e35565b604051808215151515815260200191505060405180910390f35b34801561037557600080fd5b5061037e610e55565b005b34801561038c57600080fd5b506103c1600480360381019080803573ffffffffffffffffffffffffffffffffffffffff169060200190929190505050610ed5565b6040518080602001828103825283818151815260200191508051906020019060200280838360005b838110156104045780820151818401526020810190506103e9565b505050509050019250505060405180910390f35b34801561042457600080fd5b506104476004803603810190808035600019169060200190929190505050611007565b604051808215151515815260200191505060405180910390f35b34801561046d57600080fd5b5061048c60048036038101908080359060200190929190505050611027565b604051808273ffffffffffffffffffffffffffffffffffffffff1673ffffffffffffffffffffffffffffffffffffffff16815260200191505060405180910390f35b3480156104da57600080fd5b5061050f600480360381019080803573ffffffffffffffffffffffffffffffffffffffff16906020019092919050505061105a565b005b34801561051d57600080fd5b5061054660048036038101908080359060200190929190803590602001909291905050506110b1565b005b34801561055457600080fd5b5061057360048036038101908080359060200190929190505050611193565b604051808273ffffffffffffffffffffffffffffffffffffffff1673ffffffffffffffffffffffffffffffffffffffff16815260200191505060405180910390f35b3480156105c157600080fd5b506105f6600480360381019080803573ffffffffffffffffffffffffffffffffffffffff1690602001909291905050506111d0565b6040518082815260200191505060405180910390f35b34801561061857600080fd5b50610621611219565b005b34801561062f57600080fd5b5061068a600480360381019080803590602001908201803590602001908080601f01602080910402602001604051908101604052809392919081815260200183838082843782019150505050505091929192905050506112eb565b005b34801561069857600080fd5b506106a1611477565b604051808273ffffffffffffffffffffffffffffffffffffffff1673ffffffffffffffffffffffffffffffffffffffff16815260200191505060405180910390f35b3480156106ef57600080fd5b506106f86114a0565b604051808215151515815260200191505060405180910390f35b34801561071e57600080fd5b50610755600480360381019080803590602001909291908035906020019082018035906020019190919293919293905050506114f7565b005b34801561076357600080fd5b5061078260048036038101908080359060200190929190505050611827565b005b34801561079057600080fd5b506107af60048036038101908080359060200190929190505050611844565b005b3480156107bd57600080fd5b506107e660048036038101908080359060200190929190803590602001909291905050506119e0565b005b3480156107f457600080fd5b50610829600480360381019080803573ffffffffffffffffffffffffffffffffffffffff169060200190929190505050611ca0565b005b806005600082815260200190815260200160002060009054906101000a900473ffffffffffffffffffffffffffffffffffffffff1673ffffffffffffffffffffffffffffffffffffffff163373ffffffffffffffffffffffffffffffffffffffff1614151561089957600080fd5b82600d600084815260200190815260200160002060006101000a81548173ffffffffffffffffffffffffffffffffffffffff021916908373ffffffffffffffffffffffffffffffffffffffff160217905550818373ffffffffffffffffffffffffffffffffffffffff163373ffffffffffffffffffffffffffffffffffffffff167f8c5be1e5ebec7d5bd14f71427d1e84f3dd0314c0f7b2291e5b200ac8c7c3b92560405160405180910390a4505050565b6009543414151561095b57600080fd5b6109a5600160048381548110151561096f57fe5b906000526020600020906003020160020160009054906101000a900463ffffffff1663ffffffff16611cbf90919063ffffffff16565b6004828154811015156109b457fe5b906000526020600020906003020160020160006101000a81548163ffffffff021916908363ffffffff16021790555050565b600080836005600082815260200190815260200160002060009054906101000a900473ffffffffffffffffffffffffffffffffffffffff1673ffffffffffffffffffffffffffffffffffffffff163373ffffffffffffffffffffffffffffffffffffffff16141515610a5757600080fd5b600860009054906101000a900473ffffffffffffffffffffffffffffffffffffffff1673ffffffffffffffffffffffffffffffffffffffff1663e98b7f4d856040518263ffffffff167c01000000000000000000000000000000000000000000000000000000000281526004018082815260200191505061014060405180830381600087803b158015610ae957600080fd5b505af1158015610afd573d6000803e3d6000fd5b505050506040513d610140811015610b1457600080fd5b810190808051906020019092919080519060200190929190805190602001909291908051906020019092919080519060200190929190805190602001909291908051906020019092919080519060200190929190805190602001909291908051906020019092919050505090919293949596979850909192939495969750909192939495965090919293949550909192939450909192935090919250909150905080935050600283600487815481101515610bcb57fe5b90600052602060002090600302016001015401811515610be757fe5b049150610c296040805190810160405280600b81526020017f4b697474795a6f6d62696500000000000000000000000000000000000000000081525083611ce9565b5050505050565b600481815481101515610c3f57fe5b9060005260206000209060030201600091509050806000018054600181600116156101000203166002900480601f016020809104026020016040519081016040528092919081815260200182805460018160011615610100020316600290048015610ceb5780601f10610cc057610100808354040283529160200191610ceb565b820191906000526020600020905b815481529060010190602001808311610cce57829003601f168201915b5050505050908060010154908060020160009054906101000a900463ffffffff16908060020160049054906101000a900463ffffffff16908060020160089054906101000a900461ffff169080600201600a9054906101000a900461ffff16905086565b3373ffffffffffffffffffffffffffffffffffffffff166005600083815260200190815260200160002060009054906101000a900473ffffffffffffffffffffffffffffffffffffffff1673ffffffffffffffffffffffffffffffffffffffff161480610e1a57503373ffffffffffffffffffffffffffffffffffffffff16600d600083815260200190815260200160002060009054906101000a900473ffffffffffffffffffffffffffffffffffffffff1673ffffffffffffffffffffffffffffffffffffffff16145b1515610e2557600080fd5b610e3083838361211b565b505050565b600a6020528060005260406000206000915054906101000a900460ff1681565b6000610e5f6114a0565b1515610e6a57600080fd5b610e72611477565b90508073ffffffffffffffffffffffffffffffffffffffff166108fc3073ffffffffffffffffffffffffffffffffffffffff16319081150290604051600060405180830381858888f19350505050158015610ed1573d6000803e3d6000fd5b5050565b606080600080600660008673ffffffffffffffffffffffffffffffffffffffff1673ffffffffffffffffffffffffffffffffffffffff16815260200190815260200160002054604051908082528060200260200182016040528015610f495781602001602082028038833980820191505090505b50925060009150600090505b600480549050811015610ffc578473ffffffffffffffffffffffffffffffffffffffff166005600083815260200190815260200160002060009054906101000a900473ffffffffffffffffffffffffffffffffffffffff1673ffffffffffffffffffffffffffffffffffffffff161415610fef57808383815181101515610fd857fe5b906020019060200201818152505081806001019250505b8080600101915050610f55565b829350505050919050565b60076020528060005260406000206000915054906101000a900460ff1681565b60056020528060005260406000206000915054906101000a900473ffffffffffffffffffffffffffffffffffffffff1681565b6110626114a0565b151561106d57600080fd5b80600860006101000a81548173ffffffffffffffffffffffffffffffffffffffff021916908373ffffffffffffffffffffffffffffffffffffffff16021790555050565b601482816004828154811015156110c457fe5b906000526020600020906003020160020160009054906101000a900463ffffffff1663ffffffff16101515156110f957600080fd5b836005600082815260200190815260200160002060009054906101000a900473ffffffffffffffffffffffffffffffffffffffff1673ffffffffffffffffffffffffffffffffffffffff163373ffffffffffffffffffffffffffffffffffffffff1614151561116757600080fd5b8360048681548110151561117757fe5b9060005260206000209060030201600101819055505050505050565b60006005600083815260200190815260200160002060009054906101000a900473ffffffffffffffffffffffffffffffffffffffff169050919050565b6000600660008373ffffffffffffffffffffffffffffffffffffffff1673ffffffffffffffffffffffffffffffffffffffff168152602001908152602001600020549050919050565b6112216114a0565b151561122c57600080fd5b600073ffffffffffffffffffffffffffffffffffffffff166000809054906101000a900473ffffffffffffffffffffffffffffffffffffffff1673ffffffffffffffffffffffffffffffffffffffff167f8be0079c531659141344cd1fd0a4f28419497f9722a3daafe3b4186f6b6457e060405160405180910390a360008060006101000a81548173ffffffffffffffffffffffffffffffffffffffff021916908373ffffffffffffffffffffffffffffffffffffffff160217905550565b600080826040516020018082805190602001908083835b6020831015156113275780518252602082019150602081019050602083039250611302565b6001836020036101000a0380198251168184511680821785525050505050509050019150506040516020818303038152906040526040518082805190602001908083835b602083101515611390578051825260208201915060208101905060208303925061136b565b6001836020036101000a0380198251168184511680821785525050505050509050019150506040518091039020915060076000836000191660001916815260200190815260200160002060009054906101000a900460ff1615151561145d576040517f08c379a000000000000000000000000000000000000000000000000000000000815260040180806020018281038252601b8152602001807f54686973206e616d6520697320616c72656164792074616b656e2e000000000081525060200191505060405180910390fd5b611466836122f9565b90506114728382611ce9565b505050565b60008060009054906101000a900473ffffffffffffffffffffffffffffffffffffffff16905090565b60008060009054906101000a900473ffffffffffffffffffffffffffffffffffffffff1673ffffffffffffffffffffffffffffffffffffffff163373ffffffffffffffffffffffffffffffffffffffff1614905090565b600080846005600082815260200190815260200160002060009054906101000a900473ffffffffffffffffffffffffffffffffffffffff1673ffffffffffffffffffffffffffffffffffffffff163373ffffffffffffffffffffffffffffffffffffffff1614151561156857600080fd5b8484604051602001808383808284378201915050925050506040516020818303038152906040526040518082805190602001908083835b6020831015156115c4578051825260208201915060208101905060208303925061159f565b6001836020036101000a03801982511681845116808217855250505050505090500191505060405180910390209250600a6000846000191660001916815260200190815260200160002060009054906101000a900460ff16151515611691576040517f08c379a000000000000000000000000000000000000000000000000000000000815260040180806020018281038252601b8152602001807f54686973206e616d6520697320616c72656164792074616b656e2e000000000081525060200191505060405180910390fd5b6004868154811015156116a057fe5b9060005260206000209060030201600001604051602001808280546001816001161561010002031660029004801561170f5780601f106116ed57610100808354040283529182019161170f565b820191906000526020600020905b8154815290600101906020018083116116fb575b50509150506040516020818303038152906040526040518082805190602001908083835b6020831015156117585780518252602082019150602081019050602083039250611733565b6001836020036101000a038019825116818451168082178552505050505050905001915050604051809103902091506000600a6000846000191660001916815260200190815260200160002060006101000a81548160ff02191690831515021790555084846004888154811015156117cc57fe5b906000526020600020906003020160000191906117ea929190612660565b506001600a6000856000191660001916815260200190815260200160002060006101000a81548160ff021916908315150217905550505050505050565b61182f6114a0565b151561183a57600080fd5b8060098190555050565b6000816005600082815260200190815260200160002060009054906101000a900473ffffffffffffffffffffffffffffffffffffffff1673ffffffffffffffffffffffffffffffffffffffff163373ffffffffffffffffffffffffffffffffffffffff161415156118b457600080fd5b6004838154811015156118c357fe5b9060005260206000209060030201915060018260020160009054906101000a900463ffffffff1663ffffffff1611151561198b576040517f08c379a00000000000000000000000000000000000000000000000000000000081526004018080602001828103825260228152602001807f5a6f6d626965206c6576656c2063616e6e6f74206265206c657373207468616e81526020017f203100000000000000000000000000000000000000000000000000000000000081525060400191505060405180910390fd5b6119b960018360020160009054906101000a900463ffffffff1663ffffffff166123e790919063ffffffff16565b8260020160006101000a81548163ffffffff021916908363ffffffff160217905550505050565b6000806000806060866005600082815260200190815260200160002060009054906101000a900473ffffffffffffffffffffffffffffffffffffffff1673ffffffffffffffffffffffffffffffffffffffff163373ffffffffffffffffffffffffffffffffffffffff16141515611a5657600080fd5b600488815481101515611a6557fe5b90600052602060002090600302019550600487815481101515611a8457fe5b90600052602060002090600302019450611a9e606461240c565b9350600c5484111515611c1e5785600201600881819054906101000a900461ffff168092919060010191906101000a81548161ffff021916908361ffff1602179055505085600201600081819054906101000a900463ffffffff168092919060010191906101000a81548163ffffffff021916908363ffffffff1602179055505084600201600a81819054906101000a900461ffff168092919060010191906101000a81548161ffff021916908361ffff1602179055505060028560010154876001015401811515611b6c57fe5b0492508560000160405160200180807f4368696c645a6f6d6269652d0000000000000000000000000000000000000000815250600c0182805460018160011615610100020316600290048015611bf95780601f10611bd7576101008083540402835291820191611bf9565b820191906000526020600020905b815481529060010190602001808311611be5575b50509150506040516020818303038152906040529150611c198284611ce9565b611c96565b85600201600a81819054906101000a900461ffff168092919060010191906101000a81548161ffff021916908361ffff1602179055505084600201600881819054906101000a900461ffff168092919060010191906101000a81548161ffff021916908361ffff16021790555050611c9586612505565b5b5050505050505050565b611ca86114a0565b1515611cb357600080fd5b611cbc8161252f565b50565b60008082840190508363ffffffff168163ffffffff1610151515611cdf57fe5b8091505092915050565b600080836040516020018082805190602001908083835b602083101515611d255780518252602082019150602081019050602083039250611d00565b6001836020036101000a0380198251168184511680821785525050505050509050019150506040516020818303038152906040526040518082805190602001908083835b602083101515611d8e5780518252602082019150602081019050602083039250611d69565b6001836020036101000a0380198251168184511680821785525050505050509050019150506040518091039020915060076000836000191660001916815260200190815260200160002060009054906101000a900460ff16151515611e5b576040517f08c379a000000000000000000000000000000000000000000000000000000000815260040180806020018281038252601b8152602001807f54686973206e616d6520697320616c72656164792074616b656e2e000000000081525060200191505060405180910390fd5b6001600460c060405190810160405280878152602001868152602001600163ffffffff16815260200162015180420163ffffffff168152602001600061ffff168152602001600061ffff16815250908060018154018082558091505090600182039060005260206000209060030201600090919290919091506000820151816000019080519060200190611ef09291906126e0565b506020820151816001015560408201518160020160006101000a81548163ffffffff021916908363ffffffff16021790555060608201518160020160046101000a81548163ffffffff021916908363ffffffff16021790555060808201518160020160086101000a81548161ffff021916908361ffff16021790555060a082015181600201600a6101000a81548161ffff021916908361ffff1602179055505050039050336005600083815260200190815260200160002060006101000a81548173ffffffffffffffffffffffffffffffffffffffff021916908373ffffffffffffffffffffffffffffffffffffffff160217905550600660003373ffffffffffffffffffffffffffffffffffffffff1673ffffffffffffffffffffffffffffffffffffffff16815260200190815260200160002060008154809291906001019190505550600160076000846000191660001916815260200190815260200160002060006101000a81548160ff0219169083151502179055507f88f026aacbbecc90c18411df4b1185fd8d9be2470f1962f192bf84a27d0704b78185856040518084815260200180602001838152602001828103825284818151815260200191508051906020019080838360005b838110156120d95780820151818401526020810190506120be565b50505050905090810190601f1680156121065780820380516001836020036101000a031916815260200191505b5094505050505060405180910390a150505050565b61216e6001600660008573ffffffffffffffffffffffffffffffffffffffff1673ffffffffffffffffffffffffffffffffffffffff1681526020019081526020016000205461262990919063ffffffff16565b600660008473ffffffffffffffffffffffffffffffffffffffff1673ffffffffffffffffffffffffffffffffffffffff168152602001908152602001600020819055506122046001600660003373ffffffffffffffffffffffffffffffffffffffff1673ffffffffffffffffffffffffffffffffffffffff1681526020019081526020016000205461264790919063ffffffff16565b600660003373ffffffffffffffffffffffffffffffffffffffff1673ffffffffffffffffffffffffffffffffffffffff16815260200190815260200160002081905550816005600083815260200190815260200160002060006101000a81548173ffffffffffffffffffffffffffffffffffffffff021916908373ffffffffffffffffffffffffffffffffffffffff160217905550808273ffffffffffffffffffffffffffffffffffffffff168473ffffffffffffffffffffffffffffffffffffffff167fddf252ad1be2c89b69c2b068fc378daa952ba7f163c4a11628f55a4df523b3ef60405160405180910390a4505050565b600080826040516020018082805190602001908083835b6020831015156123355780518252602082019150602081019050602083039250612310565b6001836020036101000a0380198251168184511680821785525050505050509050019150506040516020818303038152906040526040518082805190602001908083835b60208310151561239e5780518252602082019150602081019050602083039250612379565b6001836020036101000a0380198251168184511680821785525050505050509050019150506040518091039020600190049050600254818115156123de57fe5b06915050919050565b60008263ffffffff168263ffffffff161115151561240157fe5b818303905092915050565b6000600b60008154809291906001019190505550814233600b54604051602001808481526020018373ffffffffffffffffffffffffffffffffffffffff1673ffffffffffffffffffffffffffffffffffffffff166c0100000000000000000000000002815260140182815260200193505050506040516020818303038152906040526040518082805190602001908083835b6020831015156124c3578051825260208201915060208101905060208303925061249e565b6001836020036101000a0380198251168184511680821785525050505050509050019150506040518091039020600190048115156124fd57fe5b069050919050565b60035442018160020160046101000a81548163ffffffff021916908363ffffffff16021790555050565b600073ffffffffffffffffffffffffffffffffffffffff168173ffffffffffffffffffffffffffffffffffffffff161415151561256b57600080fd5b8073ffffffffffffffffffffffffffffffffffffffff166000809054906101000a900473ffffffffffffffffffffffffffffffffffffffff1673ffffffffffffffffffffffffffffffffffffffff167f8be0079c531659141344cd1fd0a4f28419497f9722a3daafe3b4186f6b6457e060405160405180910390a3806000806101000a81548173ffffffffffffffffffffffffffffffffffffffff021916908373ffffffffffffffffffffffffffffffffffffffff16021790555050565b600080828401905083811015151561263d57fe5b8091505092915050565b600082821115151561265557fe5b818303905092915050565b828054600181600116156101000203166002900490600052602060002090601f016020900481019282601f106126a157803560ff19168380011785556126cf565b828001600101855582156126cf579182015b828111156126ce5782358255916020019190600101906126b3565b5b5090506126dc9190612760565b5090565b828054600181600116156101000203166002900490600052602060002090601f016020900481019282601f1061272157805160ff191683800117855561274f565b8280016001018555821561274f579182015b8281111561274e578251825591602001919060010190612733565b5b50905061275c9190612760565b5090565b61278291905b8082111561277e576000816000905550600101612766565b5090565b905600a165627a7a72305820f64cb3a2966dc04dfb1f2bd12f420527ef72bf1635d82a3bfd0604f9dcff69a90029",
  "source": "pragma solidity ^0.4.25;\n\nimport \"./zombieattack.sol\";\nimport \"./erc721.sol\";\nimport \"./safemath.sol\";\n\ncontract ZombieOwnership is ZombieAttack, ERC721 {\n\n\n\n  using SafeMath for uint256;\n\n  mapping (uint => address) zombieApprovals;\n\n  function balanceOf(address _owner) external view returns (uint256) {\n    return ownerZombieCount[_owner];\n  }\n\n  function ownerOf(uint256 _tokenId) external view returns (address) {\n    return zombieToOwner[_tokenId];\n  }\n\n  function _transfer(address _from, address _to, uint256 _tokenId) private {\n    ownerZombieCount[_to] = ownerZombieCount[_to].add(1);\n    ownerZombieCount[msg.sender] = ownerZombieCount[msg.sender].sub(1);\n    zombieToOwner[_tokenId] = _to;\n    emit Transfer(_from, _to, _tokenId);\n  }\n\n  function transferFrom(address _from, address _to, uint256 _tokenId) external payable {\n      require (zombieToOwner[_tokenId] == msg.sender || zombieApprovals[_tokenId] == msg.sender);\n      _transfer(_from, _to, _tokenId);\n    }\n\n  function approve(address _approved, uint256 _tokenId) external payable onlyOwnerOf(_tokenId) {\n      zombieApprovals[_tokenId] = _approved;\n      emit Approval(msg.sender, _approved, _tokenId);\n    }\n\n}\n",
  "sourcePath": "C:\\Users\\Manoj\\OneDrive\\Desktop\\Adv_Blockchain\\CryptoZombie\\contracts\\zombieownership.sol",
  "compiler": {
    "name": "solc",
    "version": "0.4.25+commit.59dbf8f1.Emscripten.clang"
  },
  "schemaVersion": "3.4.16",
  "updatedAt": "2024-10-20T23:33:04.903Z",
  "networkType": "ethereum",
  "devdoc": {
    "methods": {
      "isOwner()": {
        "return": "true if `msg.sender` is the owner of the contract."
      },
      "owner()": {
        "return": "the address of the owner."
      },
      "renounceOwnership()": {
        "details": "Allows the current owner to relinquish control of the contract."
      },
      "transferOwnership(address)": {
        "details": "Allows the current owner to transfer control of the contract to a newOwner.",
        "params": {
          "newOwner": "The address to transfer ownership to."
        }
      }
    }
  },
  "userdoc": {
    "methods": {
      "renounceOwnership()": {
        "notice": "Renouncing to ownership will leave the contract without an owner. It will not be possible to call the functions with the `onlyOwner` modifier anymore."
      }
    }
  }
}