{
  "contractName": "ZombieBreeding",
  "abi": [
    {
      "constant": true,
      "inputs": [
        {
          "name": "",
          "type": "uint256"
        }
      ],
      "name": "zombies",
      "outputs": [
        {
          "name": "name",
          "type": "string"
        },
        {
          "name": "dna",
          "type": "uint256"
        },
        {
          "name": "level",
          "type": "uint32"
        },
        {
          "name": "readyTime",
          "type": "uint32"
        },
        {
          "name": "winCount",
          "type": "uint16"
        },
        {
          "name": "lossCount",
          "type": "uint16"
        }
      ],
      "payable": false,
      "stateMutability": "view",
      "type": "function"
    },
    {
      "constant": true,
      "inputs": [
        {
          "name": "",
          "type": "bytes32"
        }
      ],
      "name": "existingZombieNames",
      "outputs": [
        {
          "name": "",
          "type": "bool"
        }
      ],
      "payable": false,
      "stateMutability": "view",
      "type": "function"
    },
    {
      "constant": true,
      "inputs": [
        {
          "name": "",
          "type": "uint256"
        }
      ],
      "name": "zombieToOwner",
      "outputs": [
        {
          "name": "",
          "type": "address"
        }
      ],
      "payable": false,
      "stateMutability": "view",
      "type": "function"
    },
    {
      "constant": false,
      "inputs": [],
      "name": "renounceOwnership",
      "outputs": [],
      "payable": false,
      "stateMutability": "nonpayable",
      "type": "function"
    },
    {
      "constant": false,
      "inputs": [
        {
          "name": "_name",
          "type": "string"
        }
      ],
      "name": "createRandomZombie",
      "outputs": [],
      "payable": false,
      "stateMutability": "nonpayable",
      "type": "function"
    },
    {
      "constant": true,
      "inputs": [],
      "name": "owner",
      "outputs": [
        {
          "name": "",
          "type": "address"
        }
      ],
      "payable": false,
      "stateMutability": "view",
      "type": "function"
    },
    {
      "constant": true,
      "inputs": [],
      "name": "isOwner",
      "outputs": [
        {
          "name": "",
          "type": "bool"
        }
      ],
      "payable": false,
      "stateMutability": "view",
      "type": "function"
    },
    {
      "constant": false,
      "inputs": [
        {
          "name": "newOwner",
          "type": "address"
        }
      ],
      "name": "transferOwnership",
      "outputs": [],
      "payable": false,
      "stateMutability": "nonpayable",
      "type": "function"
    },
    {
      "anonymous": false,
      "inputs": [
        {
          "indexed": false,
          "name": "zombieId1",
          "type": "uint256"
        },
        {
          "indexed": false,
          "name": "zombieId2",
          "type": "uint256"
        }
      ],
      "name": "BreedingInitiated",
      "type": "event"
    },
    {
      "anonymous": false,
      "inputs": [
        {
          "indexed": false,
          "name": "newZombieId",
          "type": "uint256"
        }
      ],
      "name": "BreedingCompleted",
      "type": "event"
    },
    {
      "anonymous": false,
      "inputs": [
        {
          "indexed": false,
          "name": "zombieId",
          "type": "uint256"
        },
        {
          "indexed": false,
          "name": "name",
          "type": "string"
        },
        {
          "indexed": false,
          "name": "dna",
          "type": "uint256"
        }
      ],
      "name": "NewZombie",
      "type": "event"
    },
    {
      "anonymous": false,
      "inputs": [
        {
          "indexed": true,
          "name": "previousOwner",
          "type": "address"
        },
        {
          "indexed": true,
          "name": "newOwner",
          "type": "address"
        }
      ],
      "name": "OwnershipTransferred",
      "type": "event"
    },
    {
      "constant": false,
      "inputs": [
        {
          "name": "_zombieId1",
          "type": "uint256"
        },
        {
          "name": "_zombieId2",
          "type": "uint256"
        }
      ],
      "name": "breedZombies",
      "outputs": [],
      "payable": false,
      "stateMutability": "nonpayable",
      "type": "function"
    }
  ],
  "bytecode": "0x60806040526010600155600154600a0a600255603c600355662386f26fc10000600855336000806101000a81548173ffffffffffffffffffffffffffffffffffffffff021916908373ffffffffffffffffffffffffffffffffffffffff1602179055506000809054906101000a900473ffffffffffffffffffffffffffffffffffffffff1673ffffffffffffffffffffffffffffffffffffffff16600073ffffffffffffffffffffffffffffffffffffffff167f8be0079c531659141344cd1fd0a4f28419497f9722a3daafe3b4186f6b6457e060405160405180910390a3611258806100ed6000396000f300608060405260043610610099576000357c0100000000000000000000000000000000000000000000000000000000900463ffffffff1680632052465e1461009e57806347b517211461018f578063528b7b8f146101d8578063715018a6146102455780637bff0a011461025c5780637dea2673146102c55780638da5cb5b146102fc5780638f32d59b14610353578063f2fde38b14610382575b600080fd5b3480156100aa57600080fd5b506100c9600480360381019080803590602001909291905050506103c5565b60405180806020018781526020018663ffffffff1663ffffffff1681526020018563ffffffff1663ffffffff1681526020018461ffff1661ffff1681526020018361ffff1661ffff168152602001828103825288818151815260200191508051906020019080838360005b8381101561014f578082015181840152602081019050610134565b50505050905090810190601f16801561017c5780820380516001836020036101000a031916815260200191505b5097505050505050505060405180910390f35b34801561019b57600080fd5b506101be60048036038101908080356000191690602001909291905050506104e4565b604051808215151515815260200191505060405180910390f35b3480156101e457600080fd5b5061020360048036038101908080359060200190929190505050610504565b604051808273ffffffffffffffffffffffffffffffffffffffff1673ffffffffffffffffffffffffffffffffffffffff16815260200191505060405180910390f35b34801561025157600080fd5b5061025a610537565b005b34801561026857600080fd5b506102c3600480360381019080803590602001908201803590602001908080601f0160208091040260200160405190810160405280939291908181526020018383808284378201915050505050509192919290505050610609565b005b3480156102d157600080fd5b506102fa6004803603810190808035906020019092919080359060200190929190505050610795565b005b34801561030857600080fd5b50610311610ace565b604051808273ffffffffffffffffffffffffffffffffffffffff1673ffffffffffffffffffffffffffffffffffffffff16815260200191505060405180910390f35b34801561035f57600080fd5b50610368610af7565b604051808215151515815260200191505060405180910390f35b34801561038e57600080fd5b506103c3600480360381019080803573ffffffffffffffffffffffffffffffffffffffff169060200190929190505050610b4e565b005b6004818154811015156103d457fe5b9060005260206000209060030201600091509050806000018054600181600116156101000203166002900480601f0160208091040260200160405190810160405280929190818152602001828054600181600116156101000203166002900480156104805780601f1061045557610100808354040283529160200191610480565b820191906000526020600020905b81548152906001019060200180831161046357829003601f168201915b5050505050908060010154908060020160009054906101000a900463ffffffff16908060020160049054906101000a900463ffffffff16908060020160089054906101000a900461ffff169080600201600a9054906101000a900461ffff16905086565b60076020528060005260406000206000915054906101000a900460ff1681565b60056020528060005260406000206000915054906101000a900473ffffffffffffffffffffffffffffffffffffffff1681565b61053f610af7565b151561054a57600080fd5b600073ffffffffffffffffffffffffffffffffffffffff166000809054906101000a900473ffffffffffffffffffffffffffffffffffffffff1673ffffffffffffffffffffffffffffffffffffffff167f8be0079c531659141344cd1fd0a4f28419497f9722a3daafe3b4186f6b6457e060405160405180910390a360008060006101000a81548173ffffffffffffffffffffffffffffffffffffffff021916908373ffffffffffffffffffffffffffffffffffffffff160217905550565b600080826040516020018082805190602001908083835b6020831015156106455780518252602082019150602081019050602083039250610620565b6001836020036101000a0380198251168184511680821785525050505050509050019150506040516020818303038152906040526040518082805190602001908083835b6020831015156106ae5780518252602082019150602081019050602083039250610689565b6001836020036101000a0380198251168184511680821785525050505050509050019150506040518091039020915060076000836000191660001916815260200190815260200160002060009054906101000a900460ff1615151561077b576040517f08c379a000000000000000000000000000000000000000000000000000000000815260040180806020018281038252601b8152602001807f54686973206e616d6520697320616c72656164792074616b656e2e000000000081525060200191505060405180910390fd5b61078483610b6d565b90506107908382610c5b565b505050565b60007f70b5c9dfea278b44e804bf622148f32cb469bc7ffffb74c1adffe818e5f2d9118383604051808381526020018281526020019250505060405180910390a13373ffffffffffffffffffffffffffffffffffffffff166005600085815260200190815260200160002060009054906101000a900473ffffffffffffffffffffffffffffffffffffffff1673ffffffffffffffffffffffffffffffffffffffff161415156108ac576040517f08c379a00000000000000000000000000000000000000000000000000000000081526004018080602001828103825260158152602001807f4e6f74206f776e6572206f66205a6f6d6269652031000000000000000000000081525060200191505060405180910390fd5b3373ffffffffffffffffffffffffffffffffffffffff166005600084815260200190815260200160002060009054906101000a900473ffffffffffffffffffffffffffffffffffffffff1673ffffffffffffffffffffffffffffffffffffffff16141515610982576040517f08c379a00000000000000000000000000000000000000000000000000000000081526004018080602001828103825260158152602001807f4e6f74206f776e6572206f66205a6f6d6269652032000000000000000000000081525060200191505060405180910390fd5b8183141515156109fa576040517f08c379a000000000000000000000000000000000000000000000000000000000815260040180806020018281038252601d8152602001807f43616e6e6f74206272656564207468652073616d65207a6f6d6269652e00000081525060200191505060405180910390fd5b6002600483815481101515610a0b57fe5b906000526020600020906003020160010154600485815481101515610a2c57fe5b90600052602060002090600302016001015401811515610a4857fe5b049050610a8a6040805190810160405280600a81526020017f426162795a6f6d6269650000000000000000000000000000000000000000000081525082610c5b565b7f6d494ef5826d55ba667f71a7cb4c0a40d8ec47ab0ae744630633b850543710dd6001600480549050036040518082815260200191505060405180910390a1505050565b60008060009054906101000a900473ffffffffffffffffffffffffffffffffffffffff16905090565b60008060009054906101000a900473ffffffffffffffffffffffffffffffffffffffff1673ffffffffffffffffffffffffffffffffffffffff163373ffffffffffffffffffffffffffffffffffffffff1614905090565b610b56610af7565b1515610b6157600080fd5b610b6a8161108d565b50565b600080826040516020018082805190602001908083835b602083101515610ba95780518252602082019150602081019050602083039250610b84565b6001836020036101000a0380198251168184511680821785525050505050509050019150506040516020818303038152906040526040518082805190602001908083835b602083101515610c125780518252602082019150602081019050602083039250610bed565b6001836020036101000a038019825116818451168082178552505050505050905001915050604051809103902060019004905060025481811515610c5257fe5b06915050919050565b600080836040516020018082805190602001908083835b602083101515610c975780518252602082019150602081019050602083039250610c72565b6001836020036101000a0380198251168184511680821785525050505050509050019150506040516020818303038152906040526040518082805190602001908083835b602083101515610d005780518252602082019150602081019050602083039250610cdb565b6001836020036101000a0380198251168184511680821785525050505050509050019150506040518091039020915060076000836000191660001916815260200190815260200160002060009054906101000a900460ff16151515610dcd576040517f08c379a000000000000000000000000000000000000000000000000000000000815260040180806020018281038252601b8152602001807f54686973206e616d6520697320616c72656164792074616b656e2e000000000081525060200191505060405180910390fd5b6001600460c060405190810160405280878152602001868152602001600163ffffffff16815260200162015180420163ffffffff168152602001600061ffff168152602001600061ffff16815250908060018154018082558091505090600182039060005260206000209060030201600090919290919091506000820151816000019080519060200190610e62929190611187565b506020820151816001015560408201518160020160006101000a81548163ffffffff021916908363ffffffff16021790555060608201518160020160046101000a81548163ffffffff021916908363ffffffff16021790555060808201518160020160086101000a81548161ffff021916908361ffff16021790555060a082015181600201600a6101000a81548161ffff021916908361ffff1602179055505050039050336005600083815260200190815260200160002060006101000a81548173ffffffffffffffffffffffffffffffffffffffff021916908373ffffffffffffffffffffffffffffffffffffffff160217905550600660003373ffffffffffffffffffffffffffffffffffffffff1673ffffffffffffffffffffffffffffffffffffffff16815260200190815260200160002060008154809291906001019190505550600160076000846000191660001916815260200190815260200160002060006101000a81548160ff0219169083151502179055507f88f026aacbbecc90c18411df4b1185fd8d9be2470f1962f192bf84a27d0704b78185856040518084815260200180602001838152602001828103825284818151815260200191508051906020019080838360005b8381101561104b578082015181840152602081019050611030565b50505050905090810190601f1680156110785780820380516001836020036101000a031916815260200191505b5094505050505060405180910390a150505050565b600073ffffffffffffffffffffffffffffffffffffffff168173ffffffffffffffffffffffffffffffffffffffff16141515156110c957600080fd5b8073ffffffffffffffffffffffffffffffffffffffff166000809054906101000a900473ffffffffffffffffffffffffffffffffffffffff1673ffffffffffffffffffffffffffffffffffffffff167f8be0079c531659141344cd1fd0a4f28419497f9722a3daafe3b4186f6b6457e060405160405180910390a3806000806101000a81548173ffffffffffffffffffffffffffffffffffffffff021916908373ffffffffffffffffffffffffffffffffffffffff16021790555050565b828054600181600116156101000203166002900490600052602060002090601f016020900481019282601f106111c857805160ff19168380011785556111f6565b828001600101855582156111f6579182015b828111156111f55782518255916020019190600101906111da565b5b5090506112039190611207565b5090565b61122991905b8082111561122557600081600090555060010161120d565b5090565b905600a165627a7a7230582036b4cbaffa08e6e799ec2479303d92927f9591ace21c108e8b73e33c4897f3af0029",
  "source": "// SPDX-License-Identifier: MIT\r\npragma solidity ^0.4.25;\r\n\r\nimport \"./zombiefactory.sol\";\r\n\r\ncontract ZombieBreeding is ZombieFactory {\r\n\r\n    uint dnaModulus = 10 ** 16;\r\n\r\nevent BreedingInitiated(uint zombieId1, uint zombieId2);\r\nevent BreedingCompleted(uint newZombieId);\r\n\r\nfunction breedZombies(uint _zombieId1, uint _zombieId2) external {\r\n    emit BreedingInitiated(_zombieId1, _zombieId2);\r\n\r\n    require(zombieToOwner[_zombieId1] == msg.sender, \"Not owner of Zombie 1\");\r\n    require(zombieToOwner[_zombieId2] == msg.sender, \"Not owner of Zombie 2\");\r\n    require(_zombieId1 != _zombieId2, \"Cannot breed the same zombie.\");\r\n\r\n    uint newDna = (zombies[_zombieId1].dna + zombies[_zombieId2].dna) / 2;\r\n    _createZombie(\"BabyZombie\", newDna);\r\n\r\n    emit BreedingCompleted(zombies.length - 1);\r\n}\r\n\r\n\r\n}\r\n",
  "sourcePath": "C:\\Users\\Manoj\\OneDrive\\Desktop\\Adv_Blockchain\\CryptoZombie\\contracts\\zombiebreeding.sol",
  "compiler": {
    "name": "solc",
    "version": "0.4.25+commit.59dbf8f1.Emscripten.clang"
  },
  "schemaVersion": "3.4.16",
  "updatedAt": "2024-10-20T23:33:04.907Z",
  "networkType": "ethereum",
  "devdoc": {
    "methods": {
      "isOwner()": {
        "return": "true if `msg.sender` is the owner of the contract."
      },
      "owner()": {
        "return": "the address of the owner."
      },
      "renounceOwnership()": {
        "details": "Allows the current owner to relinquish control of the contract."
      },
      "transferOwnership(address)": {
        "details": "Allows the current owner to transfer control of the contract to a newOwner.",
        "params": {
          "newOwner": "The address to transfer ownership to."
        }
      }
    }
  },
  "userdoc": {
    "methods": {
      "renounceOwnership()": {
        "notice": "Renouncing to ownership will leave the contract without an owner. It will not be possible to call the functions with the `onlyOwner` modifier anymore."
      }
    }
  }
}