{
  "contractName": "ZombieAttack",
  "abi": [
    {
      "constant": false,
      "inputs": [
        {
          "name": "_zombieId",
          "type": "uint256"
        }
      ],
      "name": "levelUp",
      "outputs": [],
      "payable": true,
      "stateMutability": "payable",
      "type": "function"
    },
    {
      "constant": false,
      "inputs": [
        {
          "name": "_zombieId",
          "type": "uint256"
        },
        {
          "name": "_kittyId",
          "type": "uint256"
        }
      ],
      "name": "feedOnKitty",
      "outputs": [],
      "payable": false,
      "stateMutability": "nonpayable",
      "type": "function"
    },
    {
      "constant": true,
      "inputs": [
        {
          "name": "",
          "type": "uint256"
        }
      ],
      "name": "zombies",
      "outputs": [
        {
          "name": "name",
          "type": "string"
        },
        {
          "name": "dna",
          "type": "uint256"
        },
        {
          "name": "level",
          "type": "uint32"
        },
        {
          "name": "readyTime",
          "type": "uint32"
        },
        {
          "name": "winCount",
          "type": "uint16"
        },
        {
          "name": "lossCount",
          "type": "uint16"
        }
      ],
      "payable": false,
      "stateMutability": "view",
      "type": "function"
    },
    {
      "constant": true,
      "inputs": [
        {
          "name": "",
          "type": "bytes32"
        }
      ],
      "name": "existingNames",
      "outputs": [
        {
          "name": "",
          "type": "bool"
        }
      ],
      "payable": false,
      "stateMutability": "view",
      "type": "function"
    },
    {
      "constant": false,
      "inputs": [],
      "name": "withdraw",
      "outputs": [],
      "payable": false,
      "stateMutability": "nonpayable",
      "type": "function"
    },
    {
      "constant": true,
      "inputs": [
        {
          "name": "_owner",
          "type": "address"
        }
      ],
      "name": "getZombiesByOwner",
      "outputs": [
        {
          "name": "",
          "type": "uint256[]"
        }
      ],
      "payable": false,
      "stateMutability": "view",
      "type": "function"
    },
    {
      "constant": true,
      "inputs": [
        {
          "name": "",
          "type": "bytes32"
        }
      ],
      "name": "existingZombieNames",
      "outputs": [
        {
          "name": "",
          "type": "bool"
        }
      ],
      "payable": false,
      "stateMutability": "view",
      "type": "function"
    },
    {
      "constant": true,
      "inputs": [
        {
          "name": "",
          "type": "uint256"
        }
      ],
      "name": "zombieToOwner",
      "outputs": [
        {
          "name": "",
          "type": "address"
        }
      ],
      "payable": false,
      "stateMutability": "view",
      "type": "function"
    },
    {
      "constant": false,
      "inputs": [
        {
          "name": "_address",
          "type": "address"
        }
      ],
      "name": "setKittyContractAddress",
      "outputs": [],
      "payable": false,
      "stateMutability": "nonpayable",
      "type": "function"
    },
    {
      "constant": false,
      "inputs": [
        {
          "name": "_zombieId",
          "type": "uint256"
        },
        {
          "name": "_newDna",
          "type": "uint256"
        }
      ],
      "name": "changeDna",
      "outputs": [],
      "payable": false,
      "stateMutability": "nonpayable",
      "type": "function"
    },
    {
      "constant": false,
      "inputs": [],
      "name": "renounceOwnership",
      "outputs": [],
      "payable": false,
      "stateMutability": "nonpayable",
      "type": "function"
    },
    {
      "constant": false,
      "inputs": [
        {
          "name": "_name",
          "type": "string"
        }
      ],
      "name": "createRandomZombie",
      "outputs": [],
      "payable": false,
      "stateMutability": "nonpayable",
      "type": "function"
    },
    {
      "constant": true,
      "inputs": [],
      "name": "owner",
      "outputs": [
        {
          "name": "",
          "type": "address"
        }
      ],
      "payable": false,
      "stateMutability": "view",
      "type": "function"
    },
    {
      "constant": true,
      "inputs": [],
      "name": "isOwner",
      "outputs": [
        {
          "name": "",
          "type": "bool"
        }
      ],
      "payable": false,
      "stateMutability": "view",
      "type": "function"
    },
    {
      "constant": false,
      "inputs": [
        {
          "name": "_zombieId",
          "type": "uint256"
        },
        {
          "name": "_newName",
          "type": "string"
        }
      ],
      "name": "changeName",
      "outputs": [],
      "payable": false,
      "stateMutability": "nonpayable",
      "type": "function"
    },
    {
      "constant": false,
      "inputs": [
        {
          "name": "_fee",
          "type": "uint256"
        }
      ],
      "name": "setLevelUpFee",
      "outputs": [],
      "payable": false,
      "stateMutability": "nonpayable",
      "type": "function"
    },
    {
      "constant": false,
      "inputs": [
        {
          "name": "_zombieId",
          "type": "uint256"
        }
      ],
      "name": "levelDown",
      "outputs": [],
      "payable": false,
      "stateMutability": "nonpayable",
      "type": "function"
    },
    {
      "constant": false,
      "inputs": [
        {
          "name": "newOwner",
          "type": "address"
        }
      ],
      "name": "transferOwnership",
      "outputs": [],
      "payable": false,
      "stateMutability": "nonpayable",
      "type": "function"
    },
    {
      "anonymous": false,
      "inputs": [
        {
          "indexed": false,
          "name": "zombieId",
          "type": "uint256"
        },
        {
          "indexed": false,
          "name": "name",
          "type": "string"
        },
        {
          "indexed": false,
          "name": "dna",
          "type": "uint256"
        }
      ],
      "name": "NewZombie",
      "type": "event"
    },
    {
      "anonymous": false,
      "inputs": [
        {
          "indexed": true,
          "name": "previousOwner",
          "type": "address"
        },
        {
          "indexed": true,
          "name": "newOwner",
          "type": "address"
        }
      ],
      "name": "OwnershipTransferred",
      "type": "event"
    },
    {
      "constant": false,
      "inputs": [
        {
          "name": "_zombieId",
          "type": "uint256"
        },
        {
          "name": "_targetId",
          "type": "uint256"
        }
      ],
      "name": "attack",
      "outputs": [],
      "payable": false,
      "stateMutability": "nonpayable",
      "type": "function"
    }
  ],
  "bytecode": "0x60806040526010600155600154600a0a600255603c60035566038d7ea4c680006009556000600b556046600c55336000806101000a81548173ffffffffffffffffffffffffffffffffffffffff021916908373ffffffffffffffffffffffffffffffffffffffff1602179055506000809054906101000a900473ffffffffffffffffffffffffffffffffffffffff1673ffffffffffffffffffffffffffffffffffffffff16600073ffffffffffffffffffffffffffffffffffffffff167f8be0079c531659141344cd1fd0a4f28419497f9722a3daafe3b4186f6b6457e060405160405180910390a3612180806100f76000396000f300608060405260043610610107576000357c0100000000000000000000000000000000000000000000000000000000900463ffffffff1680630ce90ec21461010c57806317a7f4cc1461012c5780632052465e1461016357806327cdbf4a146102545780633ccfd60b1461029d5780634412e104146102b457806347b517211461034c578063528b7b8f146103955780635f4623f1146104025780635faf288014610445578063715018a61461047c5780637bff0a01146104935780638da5cb5b146104fc5780638f32d59b14610553578063c39cbef114610582578063ccf670f8146105c7578063e14d2cee146105f4578063e1fa763814610621578063f2fde38b14610658575b600080fd5b61012a6004803603810190808035906020019092919050505061069b565b005b34801561013857600080fd5b506101616004803603810190808035906020019092919080359060200190929190505050610736565b005b34801561016f57600080fd5b5061018e60048036038101908080359060200190929190505050610980565b60405180806020018781526020018663ffffffff1663ffffffff1681526020018563ffffffff1663ffffffff1681526020018461ffff1661ffff1681526020018361ffff1661ffff168152602001828103825288818151815260200191508051906020019080838360005b838110156102145780820151818401526020810190506101f9565b50505050905090810190601f1680156102415780820380516001836020036101000a031916815260200191505b5097505050505050505060405180910390f35b34801561026057600080fd5b506102836004803603810190808035600019169060200190929190505050610a9f565b604051808215151515815260200191505060405180910390f35b3480156102a957600080fd5b506102b2610abf565b005b3480156102c057600080fd5b506102f5600480360381019080803573ffffffffffffffffffffffffffffffffffffffff169060200190929190505050610b3f565b6040518080602001828103825283818151815260200191508051906020019060200280838360005b8381101561033857808201518184015260208101905061031d565b505050509050019250505060405180910390f35b34801561035857600080fd5b5061037b6004803603810190808035600019169060200190929190505050610c71565b604051808215151515815260200191505060405180910390f35b3480156103a157600080fd5b506103c060048036038101908080359060200190929190505050610c91565b604051808273ffffffffffffffffffffffffffffffffffffffff1673ffffffffffffffffffffffffffffffffffffffff16815260200191505060405180910390f35b34801561040e57600080fd5b50610443600480360381019080803573ffffffffffffffffffffffffffffffffffffffff169060200190929190505050610cc4565b005b34801561045157600080fd5b5061047a6004803603810190808035906020019092919080359060200190929190505050610d1b565b005b34801561048857600080fd5b50610491610dfd565b005b34801561049f57600080fd5b506104fa600480360381019080803590602001908201803590602001908080601f0160208091040260200160405190810160405280939291908181526020018383808284378201915050505050509192919290505050610ecf565b005b34801561050857600080fd5b5061051161105b565b604051808273ffffffffffffffffffffffffffffffffffffffff1673ffffffffffffffffffffffffffffffffffffffff16815260200191505060405180910390f35b34801561055f57600080fd5b50610568611084565b604051808215151515815260200191505060405180910390f35b34801561058e57600080fd5b506105c5600480360381019080803590602001909291908035906020019082018035906020019190919293919293905050506110db565b005b3480156105d357600080fd5b506105f26004803603810190808035906020019092919050505061140b565b005b34801561060057600080fd5b5061061f60048036038101908080359060200190929190505050611428565b005b34801561062d57600080fd5b5061065660048036038101908080359060200190929190803590602001909291905050506115c4565b005b34801561066457600080fd5b50610699600480360381019080803573ffffffffffffffffffffffffffffffffffffffff169060200190929190505050611884565b005b600954341415156106ab57600080fd5b6106f560016004838154811015156106bf57fe5b906000526020600020906003020160020160009054906101000a900463ffffffff1663ffffffff166118a390919063ffffffff16565b60048281548110151561070457fe5b906000526020600020906003020160020160006101000a81548163ffffffff021916908363ffffffff16021790555050565b600080836005600082815260200190815260200160002060009054906101000a900473ffffffffffffffffffffffffffffffffffffffff1673ffffffffffffffffffffffffffffffffffffffff163373ffffffffffffffffffffffffffffffffffffffff161415156107a757600080fd5b600860009054906101000a900473ffffffffffffffffffffffffffffffffffffffff1673ffffffffffffffffffffffffffffffffffffffff1663e98b7f4d856040518263ffffffff167c01000000000000000000000000000000000000000000000000000000000281526004018082815260200191505061014060405180830381600087803b15801561083957600080fd5b505af115801561084d573d6000803e3d6000fd5b505050506040513d61014081101561086457600080fd5b81019080805190602001909291908051906020019092919080519060200190929190805190602001909291908051906020019092919080519060200190929190805190602001909291908051906020019092919080519060200190929190805190602001909291905050509091929394959697985090919293949596975090919293949596509091929394955090919293945090919293509091925090915090508093505060028360048781548110151561091b57fe5b9060005260206000209060030201600101540181151561093757fe5b0491506109796040805190810160405280600b81526020017f4b697474795a6f6d626965000000000000000000000000000000000000000000815250836118cd565b5050505050565b60048181548110151561098f57fe5b9060005260206000209060030201600091509050806000018054600181600116156101000203166002900480601f016020809104026020016040519081016040528092919081815260200182805460018160011615610100020316600290048015610a3b5780601f10610a1057610100808354040283529160200191610a3b565b820191906000526020600020905b815481529060010190602001808311610a1e57829003601f168201915b5050505050908060010154908060020160009054906101000a900463ffffffff16908060020160049054906101000a900463ffffffff16908060020160089054906101000a900461ffff169080600201600a9054906101000a900461ffff16905086565b600a6020528060005260406000206000915054906101000a900460ff1681565b6000610ac9611084565b1515610ad457600080fd5b610adc61105b565b90508073ffffffffffffffffffffffffffffffffffffffff166108fc3073ffffffffffffffffffffffffffffffffffffffff16319081150290604051600060405180830381858888f19350505050158015610b3b573d6000803e3d6000fd5b5050565b606080600080600660008673ffffffffffffffffffffffffffffffffffffffff1673ffffffffffffffffffffffffffffffffffffffff16815260200190815260200160002054604051908082528060200260200182016040528015610bb35781602001602082028038833980820191505090505b50925060009150600090505b600480549050811015610c66578473ffffffffffffffffffffffffffffffffffffffff166005600083815260200190815260200160002060009054906101000a900473ffffffffffffffffffffffffffffffffffffffff1673ffffffffffffffffffffffffffffffffffffffff161415610c5957808383815181101515610c4257fe5b906020019060200201818152505081806001019250505b8080600101915050610bbf565b829350505050919050565b60076020528060005260406000206000915054906101000a900460ff1681565b60056020528060005260406000206000915054906101000a900473ffffffffffffffffffffffffffffffffffffffff1681565b610ccc611084565b1515610cd757600080fd5b80600860006101000a81548173ffffffffffffffffffffffffffffffffffffffff021916908373ffffffffffffffffffffffffffffffffffffffff16021790555050565b60148281600482815481101515610d2e57fe5b906000526020600020906003020160020160009054906101000a900463ffffffff1663ffffffff1610151515610d6357600080fd5b836005600082815260200190815260200160002060009054906101000a900473ffffffffffffffffffffffffffffffffffffffff1673ffffffffffffffffffffffffffffffffffffffff163373ffffffffffffffffffffffffffffffffffffffff16141515610dd157600080fd5b83600486815481101515610de157fe5b9060005260206000209060030201600101819055505050505050565b610e05611084565b1515610e1057600080fd5b600073ffffffffffffffffffffffffffffffffffffffff166000809054906101000a900473ffffffffffffffffffffffffffffffffffffffff1673ffffffffffffffffffffffffffffffffffffffff167f8be0079c531659141344cd1fd0a4f28419497f9722a3daafe3b4186f6b6457e060405160405180910390a360008060006101000a81548173ffffffffffffffffffffffffffffffffffffffff021916908373ffffffffffffffffffffffffffffffffffffffff160217905550565b600080826040516020018082805190602001908083835b602083101515610f0b5780518252602082019150602081019050602083039250610ee6565b6001836020036101000a0380198251168184511680821785525050505050509050019150506040516020818303038152906040526040518082805190602001908083835b602083101515610f745780518252602082019150602081019050602083039250610f4f565b6001836020036101000a0380198251168184511680821785525050505050509050019150506040518091039020915060076000836000191660001916815260200190815260200160002060009054906101000a900460ff16151515611041576040517f08c379a000000000000000000000000000000000000000000000000000000000815260040180806020018281038252601b8152602001807f54686973206e616d6520697320616c72656164792074616b656e2e000000000081525060200191505060405180910390fd5b61104a83611cff565b905061105683826118cd565b505050565b60008060009054906101000a900473ffffffffffffffffffffffffffffffffffffffff16905090565b60008060009054906101000a900473ffffffffffffffffffffffffffffffffffffffff1673ffffffffffffffffffffffffffffffffffffffff163373ffffffffffffffffffffffffffffffffffffffff1614905090565b600080846005600082815260200190815260200160002060009054906101000a900473ffffffffffffffffffffffffffffffffffffffff1673ffffffffffffffffffffffffffffffffffffffff163373ffffffffffffffffffffffffffffffffffffffff1614151561114c57600080fd5b8484604051602001808383808284378201915050925050506040516020818303038152906040526040518082805190602001908083835b6020831015156111a85780518252602082019150602081019050602083039250611183565b6001836020036101000a03801982511681845116808217855250505050505090500191505060405180910390209250600a6000846000191660001916815260200190815260200160002060009054906101000a900460ff16151515611275576040517f08c379a000000000000000000000000000000000000000000000000000000000815260040180806020018281038252601b8152602001807f54686973206e616d6520697320616c72656164792074616b656e2e000000000081525060200191505060405180910390fd5b60048681548110151561128457fe5b906000526020600020906003020160000160405160200180828054600181600116156101000203166002900480156112f35780601f106112d15761010080835404028352918201916112f3565b820191906000526020600020905b8154815290600101906020018083116112df575b50509150506040516020818303038152906040526040518082805190602001908083835b60208310151561133c5780518252602082019150602081019050602083039250611317565b6001836020036101000a038019825116818451168082178552505050505050905001915050604051809103902091506000600a6000846000191660001916815260200190815260200160002060006101000a81548160ff02191690831515021790555084846004888154811015156113b057fe5b906000526020600020906003020160000191906113ce92919061202f565b506001600a6000856000191660001916815260200190815260200160002060006101000a81548160ff021916908315150217905550505050505050565b611413611084565b151561141e57600080fd5b8060098190555050565b6000816005600082815260200190815260200160002060009054906101000a900473ffffffffffffffffffffffffffffffffffffffff1673ffffffffffffffffffffffffffffffffffffffff163373ffffffffffffffffffffffffffffffffffffffff1614151561149857600080fd5b6004838154811015156114a757fe5b9060005260206000209060030201915060018260020160009054906101000a900463ffffffff1663ffffffff1611151561156f576040517f08c379a00000000000000000000000000000000000000000000000000000000081526004018080602001828103825260228152602001807f5a6f6d626965206c6576656c2063616e6e6f74206265206c657373207468616e81526020017f203100000000000000000000000000000000000000000000000000000000000081525060400191505060405180910390fd5b61159d60018360020160009054906101000a900463ffffffff1663ffffffff16611ded90919063ffffffff16565b8260020160006101000a81548163ffffffff021916908363ffffffff160217905550505050565b6000806000806060866005600082815260200190815260200160002060009054906101000a900473ffffffffffffffffffffffffffffffffffffffff1673ffffffffffffffffffffffffffffffffffffffff163373ffffffffffffffffffffffffffffffffffffffff1614151561163a57600080fd5b60048881548110151561164957fe5b9060005260206000209060030201955060048781548110151561166857fe5b906000526020600020906003020194506116826064611e12565b9350600c54841115156118025785600201600881819054906101000a900461ffff168092919060010191906101000a81548161ffff021916908361ffff1602179055505085600201600081819054906101000a900463ffffffff168092919060010191906101000a81548163ffffffff021916908363ffffffff1602179055505084600201600a81819054906101000a900461ffff168092919060010191906101000a81548161ffff021916908361ffff160217905550506002856001015487600101540181151561175057fe5b0492508560000160405160200180807f4368696c645a6f6d6269652d0000000000000000000000000000000000000000815250600c01828054600181600116156101000203166002900480156117dd5780601f106117bb5761010080835404028352918201916117dd565b820191906000526020600020905b8154815290600101906020018083116117c9575b505091505060405160208183030381529060405291506117fd82846118cd565b61187a565b85600201600a81819054906101000a900461ffff168092919060010191906101000a81548161ffff021916908361ffff1602179055505084600201600881819054906101000a900461ffff168092919060010191906101000a81548161ffff021916908361ffff1602179055505061187986611f0b565b5b5050505050505050565b61188c611084565b151561189757600080fd5b6118a081611f35565b50565b60008082840190508363ffffffff168163ffffffff16101515156118c357fe5b8091505092915050565b600080836040516020018082805190602001908083835b60208310151561190957805182526020820191506020810190506020830392506118e4565b6001836020036101000a0380198251168184511680821785525050505050509050019150506040516020818303038152906040526040518082805190602001908083835b602083101515611972578051825260208201915060208101905060208303925061194d565b6001836020036101000a0380198251168184511680821785525050505050509050019150506040518091039020915060076000836000191660001916815260200190815260200160002060009054906101000a900460ff16151515611a3f576040517f08c379a000000000000000000000000000000000000000000000000000000000815260040180806020018281038252601b8152602001807f54686973206e616d6520697320616c72656164792074616b656e2e000000000081525060200191505060405180910390fd5b6001600460c060405190810160405280878152602001868152602001600163ffffffff16815260200162015180420163ffffffff168152602001600061ffff168152602001600061ffff16815250908060018154018082558091505090600182039060005260206000209060030201600090919290919091506000820151816000019080519060200190611ad49291906120af565b506020820151816001015560408201518160020160006101000a81548163ffffffff021916908363ffffffff16021790555060608201518160020160046101000a81548163ffffffff021916908363ffffffff16021790555060808201518160020160086101000a81548161ffff021916908361ffff16021790555060a082015181600201600a6101000a81548161ffff021916908361ffff1602179055505050039050336005600083815260200190815260200160002060006101000a81548173ffffffffffffffffffffffffffffffffffffffff021916908373ffffffffffffffffffffffffffffffffffffffff160217905550600660003373ffffffffffffffffffffffffffffffffffffffff1673ffffffffffffffffffffffffffffffffffffffff16815260200190815260200160002060008154809291906001019190505550600160076000846000191660001916815260200190815260200160002060006101000a81548160ff0219169083151502179055507f88f026aacbbecc90c18411df4b1185fd8d9be2470f1962f192bf84a27d0704b78185856040518084815260200180602001838152602001828103825284818151815260200191508051906020019080838360005b83811015611cbd578082015181840152602081019050611ca2565b50505050905090810190601f168015611cea5780820380516001836020036101000a031916815260200191505b5094505050505060405180910390a150505050565b600080826040516020018082805190602001908083835b602083101515611d3b5780518252602082019150602081019050602083039250611d16565b6001836020036101000a0380198251168184511680821785525050505050509050019150506040516020818303038152906040526040518082805190602001908083835b602083101515611da45780518252602082019150602081019050602083039250611d7f565b6001836020036101000a038019825116818451168082178552505050505050905001915050604051809103902060019004905060025481811515611de457fe5b06915050919050565b60008263ffffffff168263ffffffff1611151515611e0757fe5b818303905092915050565b6000600b60008154809291906001019190505550814233600b54604051602001808481526020018373ffffffffffffffffffffffffffffffffffffffff1673ffffffffffffffffffffffffffffffffffffffff166c0100000000000000000000000002815260140182815260200193505050506040516020818303038152906040526040518082805190602001908083835b602083101515611ec95780518252602082019150602081019050602083039250611ea4565b6001836020036101000a038019825116818451168082178552505050505050905001915050604051809103902060019004811515611f0357fe5b069050919050565b60035442018160020160046101000a81548163ffffffff021916908363ffffffff16021790555050565b600073ffffffffffffffffffffffffffffffffffffffff168173ffffffffffffffffffffffffffffffffffffffff1614151515611f7157600080fd5b8073ffffffffffffffffffffffffffffffffffffffff166000809054906101000a900473ffffffffffffffffffffffffffffffffffffffff1673ffffffffffffffffffffffffffffffffffffffff167f8be0079c531659141344cd1fd0a4f28419497f9722a3daafe3b4186f6b6457e060405160405180910390a3806000806101000a81548173ffffffffffffffffffffffffffffffffffffffff021916908373ffffffffffffffffffffffffffffffffffffffff16021790555050565b828054600181600116156101000203166002900490600052602060002090601f016020900481019282601f1061207057803560ff191683800117855561209e565b8280016001018555821561209e579182015b8281111561209d578235825591602001919060010190612082565b5b5090506120ab919061212f565b5090565b828054600181600116156101000203166002900490600052602060002090601f016020900481019282601f106120f057805160ff191683800117855561211e565b8280016001018555821561211e579182015b8281111561211d578251825591602001919060010190612102565b5b50905061212b919061212f565b5090565b61215191905b8082111561214d576000816000905550600101612135565b5090565b905600a165627a7a72305820481a59ed1e888e79c36dcfb401b3dbae9e0a682713a4bb00f3d84863a16086360029",
  "source": "// SPDX-License-Identifier: MIT\npragma solidity ^0.4.25;\n\nimport \"./zombiehelper.sol\";\n\ncontract ZombieAttack is ZombieHelper {\n    uint randNonce = 0;\n    uint attackVictoryProbability = 70;\n\n    event NewZombie(uint zombieId, string name, uint dna);\n\n    function randMod(uint _modulus) internal returns (uint) {\n        randNonce++;\n        return uint(keccak256(abi.encodePacked(now, msg.sender, randNonce))) % _modulus;\n    }\n\n    function attack(uint _zombieId, uint _targetId) external onlyOwnerOf(_zombieId) {\n        Zombie storage myZombie = zombies[_zombieId];\n        Zombie storage enemyZombie = zombies[_targetId];\n\n        uint rand = randMod(100);\n        if (rand <= attackVictoryProbability) {\n            myZombie.winCount++;\n            myZombie.level++;\n            enemyZombie.lossCount++;\n\n            // Generate a new DNA and create a child zombie with the desired name format\n            uint newDna = (myZombie.dna + enemyZombie.dna) / 2;\n            string memory childName = string(abi.encodePacked(\"ChildZombie-\", myZombie.name));\n            \n            // Call the function without assigning it directly to a variable\n            _createZombie(childName, newDna);\n        } else {\n            myZombie.lossCount++;\n            enemyZombie.winCount++;\n            _triggerCooldown(myZombie);\n        }\n    }\n}\n",
  "sourcePath": "C:\\Users\\Manoj\\OneDrive\\Desktop\\Adv_Blockchain\\CryptoZombie\\contracts\\zombieattack.sol",
  "compiler": {
    "name": "solc",
    "version": "0.4.25+commit.59dbf8f1.Emscripten.clang"
  },
  "schemaVersion": "3.4.16",
  "updatedAt": "2024-10-20T23:33:04.899Z",
  "networkType": "ethereum",
  "devdoc": {
    "methods": {
      "isOwner()": {
        "return": "true if `msg.sender` is the owner of the contract."
      },
      "owner()": {
        "return": "the address of the owner."
      },
      "renounceOwnership()": {
        "details": "Allows the current owner to relinquish control of the contract."
      },
      "transferOwnership(address)": {
        "details": "Allows the current owner to transfer control of the contract to a newOwner.",
        "params": {
          "newOwner": "The address to transfer ownership to."
        }
      }
    }
  },
  "userdoc": {
    "methods": {
      "renounceOwnership()": {
        "notice": "Renouncing to ownership will leave the contract without an owner. It will not be possible to call the functions with the `onlyOwner` modifier anymore."
      }
    }
  }
}